{
	"contracts/TypeExample.sol": {
		"TypeExampleContract": {
			"abi": [
				{
					"inputs": [],
					"name": "DecrementInt",
					"outputs": [],
					"stateMutability": "nonpayable",
					"type": "function"
				},
				{
					"inputs": [],
					"name": "IncrementInt",
					"outputs": [],
					"stateMutability": "nonpayable",
					"type": "function"
				},
				{
					"inputs": [],
					"name": "myBool",
					"outputs": [
						{
							"internalType": "bool",
							"name": "",
							"type": "bool"
						}
					],
					"stateMutability": "view",
					"type": "function"
				},
				{
					"inputs": [],
					"name": "myInt",
					"outputs": [
						{
							"internalType": "uint8",
							"name": "",
							"type": "uint8"
						}
					],
					"stateMutability": "view",
					"type": "function"
				},
				{
					"inputs": [],
					"name": "myUint",
					"outputs": [
						{
							"internalType": "uint256",
							"name": "",
							"type": "uint256"
						}
					],
					"stateMutability": "view",
					"type": "function"
				},
				{
					"inputs": [
						{
							"internalType": "bool",
							"name": "_myBool",
							"type": "bool"
						}
					],
					"name": "setBool",
					"outputs": [],
					"stateMutability": "nonpayable",
					"type": "function"
				},
				{
					"inputs": [
						{
							"internalType": "uint8",
							"name": "_myInt",
							"type": "uint8"
						}
					],
					"name": "setInt",
					"outputs": [],
					"stateMutability": "nonpayable",
					"type": "function"
				},
				{
					"inputs": [
						{
							"internalType": "uint256",
							"name": "_myUint",
							"type": "uint256"
						}
					],
					"name": "setUint",
					"outputs": [],
					"stateMutability": "nonpayable",
					"type": "function"
				}
			],
			"devdoc": {
				"kind": "dev",
				"methods": {},
				"version": 1
			},
			"evm": {
				"assembly": "    /* \"contracts/TypeExample.sol\":58:647  contract TypeExampleContract {... */\n  mstore(0x40, 0x80)\n    /* \"contracts/TypeExample.sol\":115:119  true */\n  0x01\n    /* \"contracts/TypeExample.sol\":94:119  bool public myBool = true */\n  0x00\n  dup1\n  0x0100\n  exp\n  dup2\n  sload\n  dup2\n  0xff\n  mul\n  not\n  and\n  swap1\n  dup4\n  iszero\n  iszero\n  mul\n  or\n  swap1\n  sstore\n  pop\n    /* \"contracts/TypeExample.sol\":147:148  1 */\n  0x01\n    /* \"contracts/TypeExample.sol\":126:148  uint public myUint = 1 */\n  dup1\n  sstore\n    /* \"contracts/TypeExample.sol\":176:177  0 */\n  0x00\n    /* \"contracts/TypeExample.sol\":155:177  uint8 public myInt = 0 */\n  0x02\n  exp(0x0100, 0x00)\n  dup2\n  sload\n  dup2\n  0xff\n  mul\n  not\n  and\n  swap1\n  dup4\n  0xff\n  and\n  mul\n  or\n  swap1\n  sstore\n  pop\n    /* \"contracts/TypeExample.sol\":58:647  contract TypeExampleContract {... */\n  callvalue\n  dup1\n  iszero\n  tag_1\n  jumpi\n  0x00\n  dup1\n  revert\ntag_1:\n  pop\n  dataSize(sub_0)\n  dup1\n  dataOffset(sub_0)\n  0x00\n  codecopy\n  0x00\n  return\nstop\n\nsub_0: assembly {\n        /* \"contracts/TypeExample.sol\":58:647  contract TypeExampleContract {... */\n      mstore(0x40, 0x80)\n      callvalue\n      dup1\n      iszero\n      tag_1\n      jumpi\n      0x00\n      dup1\n      revert\n    tag_1:\n      pop\n      jumpi(tag_2, lt(calldatasize, 0x04))\n      shr(0xe0, calldataload(0x00))\n      dup1\n      0x55883ca7\n      gt\n      tag_11\n      jumpi\n      dup1\n      0x55883ca7\n      eq\n      tag_7\n      jumpi\n      dup1\n      0x6deecdbe\n      eq\n      tag_8\n      jumpi\n      dup1\n      0x997cb171\n      eq\n      tag_9\n      jumpi\n      dup1\n      0xb138ec2b\n      eq\n      tag_10\n      jumpi\n      jump(tag_2)\n    tag_11:\n      dup1\n      0x06540f7e\n      eq\n      tag_3\n      jumpi\n      dup1\n      0x1e26fd33\n      eq\n      tag_4\n      jumpi\n      dup1\n      0x2cb777a6\n      eq\n      tag_5\n      jumpi\n      dup1\n      0x4ef65c3b\n      eq\n      tag_6\n      jumpi\n    tag_2:\n      0x00\n      dup1\n      revert\n        /* \"contracts/TypeExample.sol\":126:148  uint public myUint = 1 */\n    tag_3:\n      tag_12\n      tag_13\n      jump\t// in\n    tag_12:\n      mload(0x40)\n      tag_14\n      swap2\n      swap1\n      tag_15\n      jump\t// in\n    tag_14:\n      mload(0x40)\n      dup1\n      swap2\n      sub\n      swap1\n      return\n        /* \"contracts/TypeExample.sol\":387:463  function setBool(bool _myBool) public ... */\n    tag_4:\n      tag_16\n      0x04\n      dup1\n      calldatasize\n      sub\n      dup2\n      add\n      swap1\n      tag_17\n      swap2\n      swap1\n      tag_18\n      jump\t// in\n    tag_17:\n      tag_19\n      jump\t// in\n    tag_16:\n      stop\n        /* \"contracts/TypeExample.sol\":155:177  uint8 public myInt = 0 */\n    tag_5:\n      tag_20\n      tag_21\n      jump\t// in\n    tag_20:\n      mload(0x40)\n      tag_22\n      swap2\n      swap1\n      tag_23\n      jump\t// in\n    tag_22:\n      mload(0x40)\n      dup1\n      swap2\n      sub\n      swap1\n      return\n        /* \"contracts/TypeExample.sol\":184:302  function setUint(uint _myUint) public ... */\n    tag_6:\n      tag_24\n      0x04\n      dup1\n      calldatasize\n      sub\n      dup2\n      add\n      swap1\n      tag_25\n      swap2\n      swap1\n      tag_26\n      jump\t// in\n    tag_25:\n      tag_27\n      jump\t// in\n    tag_24:\n      stop\n        /* \"contracts/TypeExample.sol\":536:644  function DecrementInt() public ... */\n    tag_7:\n      tag_28\n      tag_29\n      jump\t// in\n    tag_28:\n      stop\n        /* \"contracts/TypeExample.sol\":94:119  bool public myBool = true */\n    tag_8:\n      tag_30\n      tag_31\n      jump\t// in\n    tag_30:\n      mload(0x40)\n      tag_32\n      swap2\n      swap1\n      tag_33\n      jump\t// in\n    tag_32:\n      mload(0x40)\n      dup1\n      swap2\n      sub\n      swap1\n      return\n        /* \"contracts/TypeExample.sol\":307:381  function setInt(uint8 _myInt) public ... */\n    tag_9:\n      tag_34\n      0x04\n      dup1\n      calldatasize\n      sub\n      dup2\n      add\n      swap1\n      tag_35\n      swap2\n      swap1\n      tag_36\n      jump\t// in\n    tag_35:\n      tag_37\n      jump\t// in\n    tag_34:\n      stop\n        /* \"contracts/TypeExample.sol\":469:530  function IncrementInt() public ... */\n    tag_10:\n      tag_38\n      tag_39\n      jump\t// in\n    tag_38:\n      stop\n        /* \"contracts/TypeExample.sol\":126:148  uint public myUint = 1 */\n    tag_13:\n      sload(0x01)\n      dup2\n      jump\t// out\n        /* \"contracts/TypeExample.sol\":387:463  function setBool(bool _myBool) public ... */\n    tag_19:\n        /* \"contracts/TypeExample.sol\":449:456  _myBool */\n      dup1\n        /* \"contracts/TypeExample.sol\":440:446  myBool */\n      0x00\n      dup1\n        /* \"contracts/TypeExample.sol\":440:456  myBool = _myBool */\n      0x0100\n      exp\n      dup2\n      sload\n      dup2\n      0xff\n      mul\n      not\n      and\n      swap1\n      dup4\n      iszero\n      iszero\n      mul\n      or\n      swap1\n      sstore\n      pop\n        /* \"contracts/TypeExample.sol\":387:463  function setBool(bool _myBool) public ... */\n      pop\n      jump\t// out\n        /* \"contracts/TypeExample.sol\":155:177  uint8 public myInt = 0 */\n    tag_21:\n      0x02\n      0x00\n      swap1\n      sload\n      swap1\n      0x0100\n      exp\n      swap1\n      div\n      0xff\n      and\n      dup2\n      jump\t// out\n        /* \"contracts/TypeExample.sol\":184:302  function setUint(uint _myUint) public ... */\n    tag_27:\n        /* \"contracts/TypeExample.sol\":278:285  _myUint */\n      dup1\n        /* \"contracts/TypeExample.sol\":269:275  myUint */\n      0x01\n        /* \"contracts/TypeExample.sol\":269:285  myUint = _myUint */\n      dup2\n      swap1\n      sstore\n      pop\n        /* \"contracts/TypeExample.sol\":184:302  function setUint(uint _myUint) public ... */\n      pop\n      jump\t// out\n        /* \"contracts/TypeExample.sol\":536:644  function DecrementInt() public ... */\n    tag_29:\n        /* \"contracts/TypeExample.sol\":614:620  myUint */\n      0x01\n      0x00\n        /* \"contracts/TypeExample.sol\":614:622  myUint-- */\n      dup2\n      sload\n      dup1\n      swap3\n      swap2\n      swap1\n      0x01\n      swap1\n      sub\n      swap2\n      swap1\n      pop\n      sstore\n      pop\n        /* \"contracts/TypeExample.sol\":536:644  function DecrementInt() public ... */\n      jump\t// out\n        /* \"contracts/TypeExample.sol\":94:119  bool public myBool = true */\n    tag_31:\n      0x00\n      dup1\n      sload\n      swap1\n      0x0100\n      exp\n      swap1\n      div\n      0xff\n      and\n      dup2\n      jump\t// out\n        /* \"contracts/TypeExample.sol\":307:381  function setInt(uint8 _myInt) public ... */\n    tag_37:\n        /* \"contracts/TypeExample.sol\":368:374  _myInt */\n      dup1\n        /* \"contracts/TypeExample.sol\":360:365  myInt */\n      0x02\n      0x00\n        /* \"contracts/TypeExample.sol\":360:374  myInt = _myInt */\n      0x0100\n      exp\n      dup2\n      sload\n      dup2\n      0xff\n      mul\n      not\n      and\n      swap1\n      dup4\n      0xff\n      and\n      mul\n      or\n      swap1\n      sstore\n      pop\n        /* \"contracts/TypeExample.sol\":307:381  function setInt(uint8 _myInt) public ... */\n      pop\n      jump\t// out\n        /* \"contracts/TypeExample.sol\":469:530  function IncrementInt() public ... */\n    tag_39:\n        /* \"contracts/TypeExample.sol\":515:521  myUint */\n      0x01\n      0x00\n        /* \"contracts/TypeExample.sol\":515:523  myUint++ */\n      dup2\n      sload\n      dup1\n      swap3\n      swap2\n      swap1\n      tag_45\n      swap1\n      tag_46\n      jump\t// in\n    tag_45:\n      swap2\n      swap1\n      pop\n      sstore\n      pop\n        /* \"contracts/TypeExample.sol\":469:530  function IncrementInt() public ... */\n      jump\t// out\n        /* \"#utility.yul\":7:84   */\n    tag_47:\n        /* \"#utility.yul\":44:51   */\n      0x00\n        /* \"#utility.yul\":73:78   */\n      dup2\n        /* \"#utility.yul\":62:78   */\n      swap1\n      pop\n        /* \"#utility.yul\":7:84   */\n      swap2\n      swap1\n      pop\n      jump\t// out\n        /* \"#utility.yul\":90:208   */\n    tag_48:\n        /* \"#utility.yul\":177:201   */\n      tag_66\n        /* \"#utility.yul\":195:200   */\n      dup2\n        /* \"#utility.yul\":177:201   */\n      tag_47\n      jump\t// in\n    tag_66:\n        /* \"#utility.yul\":172:175   */\n      dup3\n        /* \"#utility.yul\":165:202   */\n      mstore\n        /* \"#utility.yul\":90:208   */\n      pop\n      pop\n      jump\t// out\n        /* \"#utility.yul\":214:436   */\n    tag_15:\n        /* \"#utility.yul\":307:311   */\n      0x00\n        /* \"#utility.yul\":345:347   */\n      0x20\n        /* \"#utility.yul\":334:343   */\n      dup3\n        /* \"#utility.yul\":330:348   */\n      add\n        /* \"#utility.yul\":322:348   */\n      swap1\n      pop\n        /* \"#utility.yul\":358:429   */\n      tag_68\n        /* \"#utility.yul\":426:427   */\n      0x00\n        /* \"#utility.yul\":415:424   */\n      dup4\n        /* \"#utility.yul\":411:428   */\n      add\n        /* \"#utility.yul\":402:408   */\n      dup5\n        /* \"#utility.yul\":358:429   */\n      tag_48\n      jump\t// in\n    tag_68:\n        /* \"#utility.yul\":214:436   */\n      swap3\n      swap2\n      pop\n      pop\n      jump\t// out\n        /* \"#utility.yul\":523:640   */\n    tag_50:\n        /* \"#utility.yul\":632:633   */\n      0x00\n        /* \"#utility.yul\":629:630   */\n      dup1\n        /* \"#utility.yul\":622:634   */\n      revert\n        /* \"#utility.yul\":769:859   */\n    tag_52:\n        /* \"#utility.yul\":803:810   */\n      0x00\n        /* \"#utility.yul\":846:851   */\n      dup2\n        /* \"#utility.yul\":839:852   */\n      iszero\n        /* \"#utility.yul\":832:853   */\n      iszero\n        /* \"#utility.yul\":821:853   */\n      swap1\n      pop\n        /* \"#utility.yul\":769:859   */\n      swap2\n      swap1\n      pop\n      jump\t// out\n        /* \"#utility.yul\":865:981   */\n    tag_53:\n        /* \"#utility.yul\":935:956   */\n      tag_74\n        /* \"#utility.yul\":950:955   */\n      dup2\n        /* \"#utility.yul\":935:956   */\n      tag_52\n      jump\t// in\n    tag_74:\n        /* \"#utility.yul\":928:933   */\n      dup2\n        /* \"#utility.yul\":925:957   */\n      eq\n        /* \"#utility.yul\":915:975   */\n      tag_75\n      jumpi\n        /* \"#utility.yul\":971:972   */\n      0x00\n        /* \"#utility.yul\":968:969   */\n      dup1\n        /* \"#utility.yul\":961:973   */\n      revert\n        /* \"#utility.yul\":915:975   */\n    tag_75:\n        /* \"#utility.yul\":865:981   */\n      pop\n      jump\t// out\n        /* \"#utility.yul\":987:1120   */\n    tag_54:\n        /* \"#utility.yul\":1030:1035   */\n      0x00\n        /* \"#utility.yul\":1068:1074   */\n      dup2\n        /* \"#utility.yul\":1055:1075   */\n      calldataload\n        /* \"#utility.yul\":1046:1075   */\n      swap1\n      pop\n        /* \"#utility.yul\":1084:1114   */\n      tag_77\n        /* \"#utility.yul\":1108:1113   */\n      dup2\n        /* \"#utility.yul\":1084:1114   */\n      tag_53\n      jump\t// in\n    tag_77:\n        /* \"#utility.yul\":987:1120   */\n      swap3\n      swap2\n      pop\n      pop\n      jump\t// out\n        /* \"#utility.yul\":1126:1449   */\n    tag_18:\n        /* \"#utility.yul\":1182:1188   */\n      0x00\n        /* \"#utility.yul\":1231:1233   */\n      0x20\n        /* \"#utility.yul\":1219:1228   */\n      dup3\n        /* \"#utility.yul\":1210:1217   */\n      dup5\n        /* \"#utility.yul\":1206:1229   */\n      sub\n        /* \"#utility.yul\":1202:1234   */\n      slt\n        /* \"#utility.yul\":1199:1318   */\n      iszero\n      tag_79\n      jumpi\n        /* \"#utility.yul\":1237:1316   */\n      tag_80\n      tag_50\n      jump\t// in\n    tag_80:\n        /* \"#utility.yul\":1199:1318   */\n    tag_79:\n        /* \"#utility.yul\":1357:1358   */\n      0x00\n        /* \"#utility.yul\":1382:1432   */\n      tag_81\n        /* \"#utility.yul\":1424:1431   */\n      dup5\n        /* \"#utility.yul\":1415:1421   */\n      dup3\n        /* \"#utility.yul\":1404:1413   */\n      dup6\n        /* \"#utility.yul\":1400:1422   */\n      add\n        /* \"#utility.yul\":1382:1432   */\n      tag_54\n      jump\t// in\n    tag_81:\n        /* \"#utility.yul\":1372:1432   */\n      swap2\n      pop\n        /* \"#utility.yul\":1328:1442   */\n      pop\n        /* \"#utility.yul\":1126:1449   */\n      swap3\n      swap2\n      pop\n      pop\n      jump\t// out\n        /* \"#utility.yul\":1455:1541   */\n    tag_55:\n        /* \"#utility.yul\":1490:1497   */\n      0x00\n        /* \"#utility.yul\":1530:1534   */\n      0xff\n        /* \"#utility.yul\":1523:1528   */\n      dup3\n        /* \"#utility.yul\":1519:1535   */\n      and\n        /* \"#utility.yul\":1508:1535   */\n      swap1\n      pop\n        /* \"#utility.yul\":1455:1541   */\n      swap2\n      swap1\n      pop\n      jump\t// out\n        /* \"#utility.yul\":1547:1659   */\n    tag_56:\n        /* \"#utility.yul\":1630:1652   */\n      tag_84\n        /* \"#utility.yul\":1646:1651   */\n      dup2\n        /* \"#utility.yul\":1630:1652   */\n      tag_55\n      jump\t// in\n    tag_84:\n        /* \"#utility.yul\":1625:1628   */\n      dup3\n        /* \"#utility.yul\":1618:1653   */\n      mstore\n        /* \"#utility.yul\":1547:1659   */\n      pop\n      pop\n      jump\t// out\n        /* \"#utility.yul\":1665:1879   */\n    tag_23:\n        /* \"#utility.yul\":1754:1758   */\n      0x00\n        /* \"#utility.yul\":1792:1794   */\n      0x20\n        /* \"#utility.yul\":1781:1790   */\n      dup3\n        /* \"#utility.yul\":1777:1795   */\n      add\n        /* \"#utility.yul\":1769:1795   */\n      swap1\n      pop\n        /* \"#utility.yul\":1805:1872   */\n      tag_86\n        /* \"#utility.yul\":1869:1870   */\n      0x00\n        /* \"#utility.yul\":1858:1867   */\n      dup4\n        /* \"#utility.yul\":1854:1871   */\n      add\n        /* \"#utility.yul\":1845:1851   */\n      dup5\n        /* \"#utility.yul\":1805:1872   */\n      tag_56\n      jump\t// in\n    tag_86:\n        /* \"#utility.yul\":1665:1879   */\n      swap3\n      swap2\n      pop\n      pop\n      jump\t// out\n        /* \"#utility.yul\":1885:2007   */\n    tag_57:\n        /* \"#utility.yul\":1958:1982   */\n      tag_88\n        /* \"#utility.yul\":1976:1981   */\n      dup2\n        /* \"#utility.yul\":1958:1982   */\n      tag_47\n      jump\t// in\n    tag_88:\n        /* \"#utility.yul\":1951:1956   */\n      dup2\n        /* \"#utility.yul\":1948:1983   */\n      eq\n        /* \"#utility.yul\":1938:2001   */\n      tag_89\n      jumpi\n        /* \"#utility.yul\":1997:1998   */\n      0x00\n        /* \"#utility.yul\":1994:1995   */\n      dup1\n        /* \"#utility.yul\":1987:1999   */\n      revert\n        /* \"#utility.yul\":1938:2001   */\n    tag_89:\n        /* \"#utility.yul\":1885:2007   */\n      pop\n      jump\t// out\n        /* \"#utility.yul\":2013:2152   */\n    tag_58:\n        /* \"#utility.yul\":2059:2064   */\n      0x00\n        /* \"#utility.yul\":2097:2103   */\n      dup2\n        /* \"#utility.yul\":2084:2104   */\n      calldataload\n        /* \"#utility.yul\":2075:2104   */\n      swap1\n      pop\n        /* \"#utility.yul\":2113:2146   */\n      tag_91\n        /* \"#utility.yul\":2140:2145   */\n      dup2\n        /* \"#utility.yul\":2113:2146   */\n      tag_57\n      jump\t// in\n    tag_91:\n        /* \"#utility.yul\":2013:2152   */\n      swap3\n      swap2\n      pop\n      pop\n      jump\t// out\n        /* \"#utility.yul\":2158:2487   */\n    tag_26:\n        /* \"#utility.yul\":2217:2223   */\n      0x00\n        /* \"#utility.yul\":2266:2268   */\n      0x20\n        /* \"#utility.yul\":2254:2263   */\n      dup3\n        /* \"#utility.yul\":2245:2252   */\n      dup5\n        /* \"#utility.yul\":2241:2264   */\n      sub\n        /* \"#utility.yul\":2237:2269   */\n      slt\n        /* \"#utility.yul\":2234:2353   */\n      iszero\n      tag_93\n      jumpi\n        /* \"#utility.yul\":2272:2351   */\n      tag_94\n      tag_50\n      jump\t// in\n    tag_94:\n        /* \"#utility.yul\":2234:2353   */\n    tag_93:\n        /* \"#utility.yul\":2392:2393   */\n      0x00\n        /* \"#utility.yul\":2417:2470   */\n      tag_95\n        /* \"#utility.yul\":2462:2469   */\n      dup5\n        /* \"#utility.yul\":2453:2459   */\n      dup3\n        /* \"#utility.yul\":2442:2451   */\n      dup6\n        /* \"#utility.yul\":2438:2460   */\n      add\n        /* \"#utility.yul\":2417:2470   */\n      tag_58\n      jump\t// in\n    tag_95:\n        /* \"#utility.yul\":2407:2470   */\n      swap2\n      pop\n        /* \"#utility.yul\":2363:2480   */\n      pop\n        /* \"#utility.yul\":2158:2487   */\n      swap3\n      swap2\n      pop\n      pop\n      jump\t// out\n        /* \"#utility.yul\":2493:2602   */\n    tag_59:\n        /* \"#utility.yul\":2574:2595   */\n      tag_97\n        /* \"#utility.yul\":2589:2594   */\n      dup2\n        /* \"#utility.yul\":2574:2595   */\n      tag_52\n      jump\t// in\n    tag_97:\n        /* \"#utility.yul\":2569:2572   */\n      dup3\n        /* \"#utility.yul\":2562:2596   */\n      mstore\n        /* \"#utility.yul\":2493:2602   */\n      pop\n      pop\n      jump\t// out\n        /* \"#utility.yul\":2608:2818   */\n    tag_33:\n        /* \"#utility.yul\":2695:2699   */\n      0x00\n        /* \"#utility.yul\":2733:2735   */\n      0x20\n        /* \"#utility.yul\":2722:2731   */\n      dup3\n        /* \"#utility.yul\":2718:2736   */\n      add\n        /* \"#utility.yul\":2710:2736   */\n      swap1\n      pop\n        /* \"#utility.yul\":2746:2811   */\n      tag_99\n        /* \"#utility.yul\":2808:2809   */\n      0x00\n        /* \"#utility.yul\":2797:2806   */\n      dup4\n        /* \"#utility.yul\":2793:2810   */\n      add\n        /* \"#utility.yul\":2784:2790   */\n      dup5\n        /* \"#utility.yul\":2746:2811   */\n      tag_59\n      jump\t// in\n    tag_99:\n        /* \"#utility.yul\":2608:2818   */\n      swap3\n      swap2\n      pop\n      pop\n      jump\t// out\n        /* \"#utility.yul\":2824:2942   */\n    tag_60:\n        /* \"#utility.yul\":2895:2917   */\n      tag_101\n        /* \"#utility.yul\":2911:2916   */\n      dup2\n        /* \"#utility.yul\":2895:2917   */\n      tag_55\n      jump\t// in\n    tag_101:\n        /* \"#utility.yul\":2888:2893   */\n      dup2\n        /* \"#utility.yul\":2885:2918   */\n      eq\n        /* \"#utility.yul\":2875:2936   */\n      tag_102\n      jumpi\n        /* \"#utility.yul\":2932:2933   */\n      0x00\n        /* \"#utility.yul\":2929:2930   */\n      dup1\n        /* \"#utility.yul\":2922:2934   */\n      revert\n        /* \"#utility.yul\":2875:2936   */\n    tag_102:\n        /* \"#utility.yul\":2824:2942   */\n      pop\n      jump\t// out\n        /* \"#utility.yul\":2948:3083   */\n    tag_61:\n        /* \"#utility.yul\":2992:2997   */\n      0x00\n        /* \"#utility.yul\":3030:3036   */\n      dup2\n        /* \"#utility.yul\":3017:3037   */\n      calldataload\n        /* \"#utility.yul\":3008:3037   */\n      swap1\n      pop\n        /* \"#utility.yul\":3046:3077   */\n      tag_104\n        /* \"#utility.yul\":3071:3076   */\n      dup2\n        /* \"#utility.yul\":3046:3077   */\n      tag_60\n      jump\t// in\n    tag_104:\n        /* \"#utility.yul\":2948:3083   */\n      swap3\n      swap2\n      pop\n      pop\n      jump\t// out\n        /* \"#utility.yul\":3089:3414   */\n    tag_36:\n        /* \"#utility.yul\":3146:3152   */\n      0x00\n        /* \"#utility.yul\":3195:3197   */\n      0x20\n        /* \"#utility.yul\":3183:3192   */\n      dup3\n        /* \"#utility.yul\":3174:3181   */\n      dup5\n        /* \"#utility.yul\":3170:3193   */\n      sub\n        /* \"#utility.yul\":3166:3198   */\n      slt\n        /* \"#utility.yul\":3163:3282   */\n      iszero\n      tag_106\n      jumpi\n        /* \"#utility.yul\":3201:3280   */\n      tag_107\n      tag_50\n      jump\t// in\n    tag_107:\n        /* \"#utility.yul\":3163:3282   */\n    tag_106:\n        /* \"#utility.yul\":3321:3322   */\n      0x00\n        /* \"#utility.yul\":3346:3397   */\n      tag_108\n        /* \"#utility.yul\":3389:3396   */\n      dup5\n        /* \"#utility.yul\":3380:3386   */\n      dup3\n        /* \"#utility.yul\":3369:3378   */\n      dup6\n        /* \"#utility.yul\":3365:3387   */\n      add\n        /* \"#utility.yul\":3346:3397   */\n      tag_61\n      jump\t// in\n    tag_108:\n        /* \"#utility.yul\":3336:3397   */\n      swap2\n      pop\n        /* \"#utility.yul\":3292:3407   */\n      pop\n        /* \"#utility.yul\":3089:3414   */\n      swap3\n      swap2\n      pop\n      pop\n      jump\t// out\n        /* \"#utility.yul\":3420:3600   */\n    tag_62:\n        /* \"#utility.yul\":3468:3545   */\n      0x4e487b7100000000000000000000000000000000000000000000000000000000\n        /* \"#utility.yul\":3465:3466   */\n      0x00\n        /* \"#utility.yul\":3458:3546   */\n      mstore\n        /* \"#utility.yul\":3565:3569   */\n      0x11\n        /* \"#utility.yul\":3562:3563   */\n      0x04\n        /* \"#utility.yul\":3555:3570   */\n      mstore\n        /* \"#utility.yul\":3589:3593   */\n      0x24\n        /* \"#utility.yul\":3586:3587   */\n      0x00\n        /* \"#utility.yul\":3579:3594   */\n      revert\n        /* \"#utility.yul\":3606:3839   */\n    tag_46:\n        /* \"#utility.yul\":3645:3648   */\n      0x00\n        /* \"#utility.yul\":3668:3692   */\n      tag_111\n        /* \"#utility.yul\":3686:3691   */\n      dup3\n        /* \"#utility.yul\":3668:3692   */\n      tag_47\n      jump\t// in\n    tag_111:\n        /* \"#utility.yul\":3659:3692   */\n      swap2\n      pop\n        /* \"#utility.yul\":3714:3780   */\n      0xffffffffffffffffffffffffffffffffffffffffffffffffffffffffffffffff\n        /* \"#utility.yul\":3707:3712   */\n      dup3\n        /* \"#utility.yul\":3704:3781   */\n      sub\n        /* \"#utility.yul\":3701:3804   */\n      tag_112\n      jumpi\n        /* \"#utility.yul\":3784:3802   */\n      tag_113\n      tag_62\n      jump\t// in\n    tag_113:\n        /* \"#utility.yul\":3701:3804   */\n    tag_112:\n        /* \"#utility.yul\":3831:3832   */\n      0x01\n        /* \"#utility.yul\":3824:3829   */\n      dup3\n        /* \"#utility.yul\":3820:3833   */\n      add\n        /* \"#utility.yul\":3813:3833   */\n      swap1\n      pop\n        /* \"#utility.yul\":3606:3839   */\n      swap2\n      swap1\n      pop\n      jump\t// out\n\n    auxdata: 0xa2646970667358221220bea57faf50b6a186e4445f8e00eae2bdaa59819ca5a3a35983a197e9702e243964736f6c634300080e0033\n}\n",
				"bytecode": {
					"linkReferences": {},
					"object": "608060405260016000806101000a81548160ff021916908315150217905550600180556000600260006101000a81548160ff021916908360ff16021790555034801561004a57600080fd5b5061044a8061005a6000396000f3fe608060405234801561001057600080fd5b50600436106100885760003560e01c806355883ca71161005b57806355883ca7146101015780636deecdbe1461010b578063997cb17114610129578063b138ec2b1461014557610088565b806306540f7e1461008d5780631e26fd33146100ab5780632cb777a6146100c75780634ef65c3b146100e5575b600080fd5b61009561014f565b6040516100a29190610205565b60405180910390f35b6100c560048036038101906100c0919061025d565b610155565b005b6100cf610171565b6040516100dc91906102a6565b60405180910390f35b6100ff60048036038101906100fa91906102ed565b610184565b005b61010961018e565b005b6101136101a3565b6040516101209190610329565b60405180910390f35b610143600480360381019061013e9190610370565b6101b4565b005b61014d6101d2565b005b60015481565b806000806101000a81548160ff02191690831515021790555050565b600260009054906101000a900460ff1681565b8060018190555050565b60016000815480929190600190039190505550565b60008054906101000a900460ff1681565b80600260006101000a81548160ff021916908360ff16021790555050565b600160008154809291906101e5906103cc565b9190505550565b6000819050919050565b6101ff816101ec565b82525050565b600060208201905061021a60008301846101f6565b92915050565b600080fd5b60008115159050919050565b61023a81610225565b811461024557600080fd5b50565b60008135905061025781610231565b92915050565b60006020828403121561027357610272610220565b5b600061028184828501610248565b91505092915050565b600060ff82169050919050565b6102a08161028a565b82525050565b60006020820190506102bb6000830184610297565b92915050565b6102ca816101ec565b81146102d557600080fd5b50565b6000813590506102e7816102c1565b92915050565b60006020828403121561030357610302610220565b5b6000610311848285016102d8565b91505092915050565b61032381610225565b82525050565b600060208201905061033e600083018461031a565b92915050565b61034d8161028a565b811461035857600080fd5b50565b60008135905061036a81610344565b92915050565b60006020828403121561038657610385610220565b5b60006103948482850161035b565b91505092915050565b7f4e487b7100000000000000000000000000000000000000000000000000000000600052601160045260246000fd5b60006103d7826101ec565b91507fffffffffffffffffffffffffffffffffffffffffffffffffffffffffffffffff82036104095761040861039d565b5b60018201905091905056fea2646970667358221220bea57faf50b6a186e4445f8e00eae2bdaa59819ca5a3a35983a197e9702e243964736f6c634300080e0033",
					"opcodes": "PUSH1 0x80 PUSH1 0x40 MSTORE PUSH1 0x1 PUSH1 0x0 DUP1 PUSH2 0x100 EXP DUP2 SLOAD DUP2 PUSH1 0xFF MUL NOT AND SWAP1 DUP4 ISZERO ISZERO MUL OR SWAP1 SSTORE POP PUSH1 0x1 DUP1 SSTORE PUSH1 0x0 PUSH1 0x2 PUSH1 0x0 PUSH2 0x100 EXP DUP2 SLOAD DUP2 PUSH1 0xFF MUL NOT AND SWAP1 DUP4 PUSH1 0xFF AND MUL OR SWAP1 SSTORE POP CALLVALUE DUP1 ISZERO PUSH2 0x4A JUMPI PUSH1 0x0 DUP1 REVERT JUMPDEST POP PUSH2 0x44A DUP1 PUSH2 0x5A PUSH1 0x0 CODECOPY PUSH1 0x0 RETURN INVALID PUSH1 0x80 PUSH1 0x40 MSTORE CALLVALUE DUP1 ISZERO PUSH2 0x10 JUMPI PUSH1 0x0 DUP1 REVERT JUMPDEST POP PUSH1 0x4 CALLDATASIZE LT PUSH2 0x88 JUMPI PUSH1 0x0 CALLDATALOAD PUSH1 0xE0 SHR DUP1 PUSH4 0x55883CA7 GT PUSH2 0x5B JUMPI DUP1 PUSH4 0x55883CA7 EQ PUSH2 0x101 JUMPI DUP1 PUSH4 0x6DEECDBE EQ PUSH2 0x10B JUMPI DUP1 PUSH4 0x997CB171 EQ PUSH2 0x129 JUMPI DUP1 PUSH4 0xB138EC2B EQ PUSH2 0x145 JUMPI PUSH2 0x88 JUMP JUMPDEST DUP1 PUSH4 0x6540F7E EQ PUSH2 0x8D JUMPI DUP1 PUSH4 0x1E26FD33 EQ PUSH2 0xAB JUMPI DUP1 PUSH4 0x2CB777A6 EQ PUSH2 0xC7 JUMPI DUP1 PUSH4 0x4EF65C3B EQ PUSH2 0xE5 JUMPI JUMPDEST PUSH1 0x0 DUP1 REVERT JUMPDEST PUSH2 0x95 PUSH2 0x14F JUMP JUMPDEST PUSH1 0x40 MLOAD PUSH2 0xA2 SWAP2 SWAP1 PUSH2 0x205 JUMP JUMPDEST PUSH1 0x40 MLOAD DUP1 SWAP2 SUB SWAP1 RETURN JUMPDEST PUSH2 0xC5 PUSH1 0x4 DUP1 CALLDATASIZE SUB DUP2 ADD SWAP1 PUSH2 0xC0 SWAP2 SWAP1 PUSH2 0x25D JUMP JUMPDEST PUSH2 0x155 JUMP JUMPDEST STOP JUMPDEST PUSH2 0xCF PUSH2 0x171 JUMP JUMPDEST PUSH1 0x40 MLOAD PUSH2 0xDC SWAP2 SWAP1 PUSH2 0x2A6 JUMP JUMPDEST PUSH1 0x40 MLOAD DUP1 SWAP2 SUB SWAP1 RETURN JUMPDEST PUSH2 0xFF PUSH1 0x4 DUP1 CALLDATASIZE SUB DUP2 ADD SWAP1 PUSH2 0xFA SWAP2 SWAP1 PUSH2 0x2ED JUMP JUMPDEST PUSH2 0x184 JUMP JUMPDEST STOP JUMPDEST PUSH2 0x109 PUSH2 0x18E JUMP JUMPDEST STOP JUMPDEST PUSH2 0x113 PUSH2 0x1A3 JUMP JUMPDEST PUSH1 0x40 MLOAD PUSH2 0x120 SWAP2 SWAP1 PUSH2 0x329 JUMP JUMPDEST PUSH1 0x40 MLOAD DUP1 SWAP2 SUB SWAP1 RETURN JUMPDEST PUSH2 0x143 PUSH1 0x4 DUP1 CALLDATASIZE SUB DUP2 ADD SWAP1 PUSH2 0x13E SWAP2 SWAP1 PUSH2 0x370 JUMP JUMPDEST PUSH2 0x1B4 JUMP JUMPDEST STOP JUMPDEST PUSH2 0x14D PUSH2 0x1D2 JUMP JUMPDEST STOP JUMPDEST PUSH1 0x1 SLOAD DUP2 JUMP JUMPDEST DUP1 PUSH1 0x0 DUP1 PUSH2 0x100 EXP DUP2 SLOAD DUP2 PUSH1 0xFF MUL NOT AND SWAP1 DUP4 ISZERO ISZERO MUL OR SWAP1 SSTORE POP POP JUMP JUMPDEST PUSH1 0x2 PUSH1 0x0 SWAP1 SLOAD SWAP1 PUSH2 0x100 EXP SWAP1 DIV PUSH1 0xFF AND DUP2 JUMP JUMPDEST DUP1 PUSH1 0x1 DUP2 SWAP1 SSTORE POP POP JUMP JUMPDEST PUSH1 0x1 PUSH1 0x0 DUP2 SLOAD DUP1 SWAP3 SWAP2 SWAP1 PUSH1 0x1 SWAP1 SUB SWAP2 SWAP1 POP SSTORE POP JUMP JUMPDEST PUSH1 0x0 DUP1 SLOAD SWAP1 PUSH2 0x100 EXP SWAP1 DIV PUSH1 0xFF AND DUP2 JUMP JUMPDEST DUP1 PUSH1 0x2 PUSH1 0x0 PUSH2 0x100 EXP DUP2 SLOAD DUP2 PUSH1 0xFF MUL NOT AND SWAP1 DUP4 PUSH1 0xFF AND MUL OR SWAP1 SSTORE POP POP JUMP JUMPDEST PUSH1 0x1 PUSH1 0x0 DUP2 SLOAD DUP1 SWAP3 SWAP2 SWAP1 PUSH2 0x1E5 SWAP1 PUSH2 0x3CC JUMP JUMPDEST SWAP2 SWAP1 POP SSTORE POP JUMP JUMPDEST PUSH1 0x0 DUP2 SWAP1 POP SWAP2 SWAP1 POP JUMP JUMPDEST PUSH2 0x1FF DUP2 PUSH2 0x1EC JUMP JUMPDEST DUP3 MSTORE POP POP JUMP JUMPDEST PUSH1 0x0 PUSH1 0x20 DUP3 ADD SWAP1 POP PUSH2 0x21A PUSH1 0x0 DUP4 ADD DUP5 PUSH2 0x1F6 JUMP JUMPDEST SWAP3 SWAP2 POP POP JUMP JUMPDEST PUSH1 0x0 DUP1 REVERT JUMPDEST PUSH1 0x0 DUP2 ISZERO ISZERO SWAP1 POP SWAP2 SWAP1 POP JUMP JUMPDEST PUSH2 0x23A DUP2 PUSH2 0x225 JUMP JUMPDEST DUP2 EQ PUSH2 0x245 JUMPI PUSH1 0x0 DUP1 REVERT JUMPDEST POP JUMP JUMPDEST PUSH1 0x0 DUP2 CALLDATALOAD SWAP1 POP PUSH2 0x257 DUP2 PUSH2 0x231 JUMP JUMPDEST SWAP3 SWAP2 POP POP JUMP JUMPDEST PUSH1 0x0 PUSH1 0x20 DUP3 DUP5 SUB SLT ISZERO PUSH2 0x273 JUMPI PUSH2 0x272 PUSH2 0x220 JUMP JUMPDEST JUMPDEST PUSH1 0x0 PUSH2 0x281 DUP5 DUP3 DUP6 ADD PUSH2 0x248 JUMP JUMPDEST SWAP2 POP POP SWAP3 SWAP2 POP POP JUMP JUMPDEST PUSH1 0x0 PUSH1 0xFF DUP3 AND SWAP1 POP SWAP2 SWAP1 POP JUMP JUMPDEST PUSH2 0x2A0 DUP2 PUSH2 0x28A JUMP JUMPDEST DUP3 MSTORE POP POP JUMP JUMPDEST PUSH1 0x0 PUSH1 0x20 DUP3 ADD SWAP1 POP PUSH2 0x2BB PUSH1 0x0 DUP4 ADD DUP5 PUSH2 0x297 JUMP JUMPDEST SWAP3 SWAP2 POP POP JUMP JUMPDEST PUSH2 0x2CA DUP2 PUSH2 0x1EC JUMP JUMPDEST DUP2 EQ PUSH2 0x2D5 JUMPI PUSH1 0x0 DUP1 REVERT JUMPDEST POP JUMP JUMPDEST PUSH1 0x0 DUP2 CALLDATALOAD SWAP1 POP PUSH2 0x2E7 DUP2 PUSH2 0x2C1 JUMP JUMPDEST SWAP3 SWAP2 POP POP JUMP JUMPDEST PUSH1 0x0 PUSH1 0x20 DUP3 DUP5 SUB SLT ISZERO PUSH2 0x303 JUMPI PUSH2 0x302 PUSH2 0x220 JUMP JUMPDEST JUMPDEST PUSH1 0x0 PUSH2 0x311 DUP5 DUP3 DUP6 ADD PUSH2 0x2D8 JUMP JUMPDEST SWAP2 POP POP SWAP3 SWAP2 POP POP JUMP JUMPDEST PUSH2 0x323 DUP2 PUSH2 0x225 JUMP JUMPDEST DUP3 MSTORE POP POP JUMP JUMPDEST PUSH1 0x0 PUSH1 0x20 DUP3 ADD SWAP1 POP PUSH2 0x33E PUSH1 0x0 DUP4 ADD DUP5 PUSH2 0x31A JUMP JUMPDEST SWAP3 SWAP2 POP POP JUMP JUMPDEST PUSH2 0x34D DUP2 PUSH2 0x28A JUMP JUMPDEST DUP2 EQ PUSH2 0x358 JUMPI PUSH1 0x0 DUP1 REVERT JUMPDEST POP JUMP JUMPDEST PUSH1 0x0 DUP2 CALLDATALOAD SWAP1 POP PUSH2 0x36A DUP2 PUSH2 0x344 JUMP JUMPDEST SWAP3 SWAP2 POP POP JUMP JUMPDEST PUSH1 0x0 PUSH1 0x20 DUP3 DUP5 SUB SLT ISZERO PUSH2 0x386 JUMPI PUSH2 0x385 PUSH2 0x220 JUMP JUMPDEST JUMPDEST PUSH1 0x0 PUSH2 0x394 DUP5 DUP3 DUP6 ADD PUSH2 0x35B JUMP JUMPDEST SWAP2 POP POP SWAP3 SWAP2 POP POP JUMP JUMPDEST PUSH32 0x4E487B7100000000000000000000000000000000000000000000000000000000 PUSH1 0x0 MSTORE PUSH1 0x11 PUSH1 0x4 MSTORE PUSH1 0x24 PUSH1 0x0 REVERT JUMPDEST PUSH1 0x0 PUSH2 0x3D7 DUP3 PUSH2 0x1EC JUMP JUMPDEST SWAP2 POP PUSH32 0xFFFFFFFFFFFFFFFFFFFFFFFFFFFFFFFFFFFFFFFFFFFFFFFFFFFFFFFFFFFFFFFF DUP3 SUB PUSH2 0x409 JUMPI PUSH2 0x408 PUSH2 0x39D JUMP JUMPDEST JUMPDEST PUSH1 0x1 DUP3 ADD SWAP1 POP SWAP2 SWAP1 POP JUMP INVALID LOG2 PUSH5 0x6970667358 0x22 SLT KECCAK256 0xBE 0xA5 PUSH32 0xAF50B6A186E4445F8E00EAE2BDAA59819CA5A3A35983A197E9702E243964736F PUSH13 0x634300080E0033000000000000 "
				},
				"gasEstimates": {
					"creation": {
						"codeDepositCost": "219600",
						"executionCost": "70903",
						"totalCost": "290503"
					},
					"external": {
						"DecrementInt()": "24384",
						"IncrementInt()": "24567",
						"myBool()": "2490",
						"myInt()": "2516",
						"myUint()": "2430",
						"setBool(bool)": "24702",
						"setInt(uint8)": "24723",
						"setUint(uint256)": "22587"
					}
				},
				"methodIdentifiers": {
					"DecrementInt()": "55883ca7",
					"IncrementInt()": "b138ec2b",
					"myBool()": "6deecdbe",
					"myInt()": "2cb777a6",
					"myUint()": "06540f7e",
					"setBool(bool)": "1e26fd33",
					"setInt(uint8)": "997cb171",
					"setUint(uint256)": "4ef65c3b"
				}
			},
			"storageLayout": {
				"storage": [
					{
						"astId": 4,
						"contract": "contracts/TypeExample.sol:TypeExampleContract",
						"label": "myBool",
						"offset": 0,
						"slot": "0",
						"type": "t_bool"
					},
					{
						"astId": 7,
						"contract": "contracts/TypeExample.sol:TypeExampleContract",
						"label": "myUint",
						"offset": 0,
						"slot": "1",
						"type": "t_uint256"
					},
					{
						"astId": 10,
						"contract": "contracts/TypeExample.sol:TypeExampleContract",
						"label": "myInt",
						"offset": 0,
						"slot": "2",
						"type": "t_uint8"
					}
				],
				"types": {
					"t_bool": {
						"encoding": "inplace",
						"label": "bool",
						"numberOfBytes": "1"
					},
					"t_uint256": {
						"encoding": "inplace",
						"label": "uint256",
						"numberOfBytes": "32"
					},
					"t_uint8": {
						"encoding": "inplace",
						"label": "uint8",
						"numberOfBytes": "1"
					}
				}
			},
			"userdoc": {
				"kind": "user",
				"methods": {},
				"version": 1
			}
		}
	}
}